:020000040000FA
:10000000701500206D02000081020000C302000094
:10001000830200008502000087020000000000004B
:100020000000000000000000000000008902000045
:100030008B020000000000008D020000652E000011
:1000400091020000851700000D18000091020000C9
:100050003D18000091020000910200009102000092
:100060009102000091020000910200009102000044
:100070009102000091020000910200009102000034
:10008000910200009102000091020000D5320000B0
:10009000910200009102000091020000493300002B
:1000A0009102000091020000910200009102000004
:1000B00091020000910200009102000091020000F4
:1000C000910200009102000091020000053400003E
:1000D00091020000910200009102000091020000D4
:1000E00091020000000000000000000091020000EA
:1000F00091020000910200009102000091020000B4
:1001000091020000910200009102000091020000A3
:1001100000000000000000009102000091020000B9
:100120009102000091020000910200009102000083
:100130009102000091020000910200009102000073
:1001400000000000000000000000000000000000AF
:100150009102000091020000C134000091020000F1
:10016000000000000000000000000000000000008F
:10017000000000000000000000000000000000007F
:10018000000000000000000000000000000000006F
:10019000000000000000000000000000000000005F
:1001A000000000000000000000000000000000004F
:1001B0007D350000910200009102000091020000D4
:1001C00091020000910200009102000091020000E3
:1001D00091020000910200009102000091020000D3
:1001E0009102000091020000910200000000000056
:1001F0000000000091020000910200009102000046
:1002000091020000910200000000000000000000C8
:100210009102000091020000910200009102000092
:100220009102000091020000910200009102000082
:100230009102000091020000910200009102000072
:100240009102000091020000910200009102000062
:100250009102000091020000910200009102000052
:100260009102000091020000910200004EF68850B9
:10027000CEF20000016841F47001016000F00AB89C
:10028000FEE7FEE7FEE7FEE7FEE7FEE7FEE7FEE746
:10029000FEE70000DFF80CD000F080FA00480047CD
:1002A000693F00007015002072B6704762B6704753
:1002B000EFF3108072B6704780F31088704730BF3C
:1002C00070474FF004001EEA000F0CBFEFF30880E8
:1002D000EFF309807146FFF7DBBF000010B5431A4A
:1002E000934209D28318881803E010F8011D03F81F
:1002F000011D521EF9D210BD40EA01039B0703D035
:1003000009E008C9121F08C0042AFAD203E011F854
:10031000013B00F8013B521EF9D210BD421C10F8FF
:10032000011B0029FBD1801A704710B5002200E0A4
:10033000521C835C8C5CA34201D1002BF8D1D8B253
:10034000E1B2401A10BD034611F8012B00F8012B51
:10035000002AF9D11846704770B50F4D00B92868CA
:10036000002412E00A4602E09E4203D0521C137899
:10037000002BF9D1DAB2224305D02BB124B10021F0
:1003800000F8011B04E00446401C0678002EE9D169
:100390002860204670BD00000000002030B50B46EC
:1003A000014600202022012409E021FA02F59D42A5
:1003B00005D303FA02F5491B04FA02F52844151E79
:1003C000A2F10102F1DC30BD2DE9F05F054600200D
:1003D00092469B4688460646814640241BE02846B6
:1003E00041464746224600F000FA53465A46C01A94
:1003F000914110D311461846224600F0E7F92D1A14
:1004000067EB01084F4622460120002100F0DEF98B
:1004100017EB00094E41201EA4F10104DFDC484621
:1004200031462A464346BDE8F09F2DE9FE4F8046FF
:1004300081EA0300C00F0C46009021F0004123F038
:100440000045B8EB0200A94105D24046214690463E
:100450001C460B46024623F00040104347D0270DB0
:10046000C7F30A00C3F30A510290401A01904028D2
:100470006BDAC3F3130040F4801B0098924620B15E
:100480000023D2EB030A63EB0B0B01985946C0F132
:100490004002504600F09AF906460D46504659462D
:1004A000019A00F0B2F910EB08006141002487EADC
:1004B000115284EAE7731A4340D0009A62B3019A5A
:1004C000012A4FEA075215DC001B61EB02014FF0D5
:1004D000004202EA0752CDE90042001C41F58011BA
:1004E00032462B4600F0B2F903B0BDE8F08F40462B
:1004F0002146F9E7001B61EB0201001C41F5801366
:1005000000185B412018A2F5001747EB030140EAF1
:10051000D570B6196D4111E06D084FEA360645EA0F
:10052000C0754FEA0752001B61EB0201001C41F548
:10053000801149084FEA30000019514132462B46DC
:1005400003B0BDE8F04F00F072B9009801224000FE
:100550000023D0EB020263EBE073009821464FEAE0
:10056000E074B8EB000061EB0401E9E783F00043BD
:100570005BE781F0004158E72DE9FE4F81EA030473
:1005800004F0004421F0004100944FF0000B23F0F0
:10059000004350EA01045ED052EA03045BD0C3F387
:1005A0000A54C1F30A552C44A4F2F3340194A0FB7D
:1005B0000254C1F3130141F48011C3F3130343F454
:1005C000801301FB024400FB034E840A970A44EAAD
:1005D000815447EA8357A4FB076802958D0A05FBFF
:1005E00007854FEA932C04FB0C542705029D4FEA24
:1005F000065847EA1637B5EB08056EEB070C870E71
:10060000920E47EA811742EA8312A7FB0201B6EB7A
:100610000B0164EB00042B0D43EA0C335E1844EB32
:100620001C50DA465146E7FB0201C5F313044FEABA
:100630000B3343EA14534FEA0432019C43EA0603A6
:10064000A4F10C040294009CCDE900B400F0FEF883
:1006500003B0BDE8F08F00200146F9E72DE9F04D29
:1006600081EA030404F0004B21F0004514464FF0EA
:10067000000A23F0004150EA050220D054EA0102AA
:100680001DD0C5F30A570246C5F31303C1F3130087
:10069000C1F30A5640F4801543F48013A7EB060813
:1006A000101BD64608F2FD3873EB050002D308F1A3
:1006B000010801E092185B41B8F1000F03DA002055
:1006C0000146BDE8F08D00204FF4801106468446B7
:1006D0000EE0171B73EB050705D3121B63EB050335
:1006E00006434CEA010C49084FEA300092185B417E
:1006F00050EA0107EDD152EA030012D082EA040069
:1007000083EA0501084305D0101BAB4106D2012244
:10071000002306E000224FF0004302E06FF00102E8
:1007200053101AEB06004CEB085110EB0A0041EB9A
:100730000B01BDE8F04D00F07AB8C1F30A52C1F3E5
:10074000130140F2FF3341F480119A4202DA002093
:100750000146704740F233439A42A2F2334202DC30
:10076000524200F042B800F031B8000030B5041E2B
:1007700071F1000404DB4FF00044404264EB0101DE
:10078000141E73F1000405DB1C464FF00043524277
:1007900063EB0403994208BF904230BD1CB5094881
:1007A0000090094801900546009C06E0E06840F092
:1007B000010394E8070098471034AC42F6D3FFF7E2
:1007C0006DFD00007039010090390100202A04DB22
:1007D000203A00FA02F1002070479140C2F1200354
:1007E00020FA03F3194390407047202A04DB203A93
:1007F00021FA02F00021704721FA02F3D040C2F141
:1008000020029140084319467047202A06DBCB1787
:10081000203A41FA02F043EAE07306E041FA02F3BB
:10082000D040C2F12002914008431946704710B5EC
:10083000141E73F1000408DA401C41F10001921803
:100840005B411A4301D120F0010010BD2DE9F04DAC
:1008500092469B4611B1B1FA81F202E0B0FA80F201
:1008600020329046FFF7B2FF04460F4640EA0A00E6
:1008700041EA0B0153465A46084313D0114653EA46
:10088000010019D0C8F140025046FFF7AEFF0546FF
:100890000E46504659464246FFF798FF084305D09A
:1008A000012004E020463946BDE8F08D00200543D4
:1008B00046EAE0762C4337430A986305E40AA0EB46
:1008C00008000022FD0A44EA47540A3002D50020FD
:1008D0000146E9E7010510196941DDE908450019FC
:1008E0006941BDE8F04DA2E781B048F22801C4F2A9
:1008F000030108200860FFE748F20400C4F2030087
:1009000000680007002801D4FFE7F5E748F2A800D7
:10091000C4F2030000686FF31F30009048F20C012E
:10092000C4F2030108200860009801B0704700007D
:1009300080B582B04EF23861C4F20F01086840F011
:10094000010008604EF20860C4F20F00016841F037
:10095000080101600068019047F20041C4F2000103
:10096000086820F00800086047F22041C4F2000146
:10097000086840F00800086047F21C51C4F200010A
:10098000086820F00800086047F22851C4F200010E
:10099000086840F00800086048F6C471C4F203011A
:1009A000086820F00F000860086840F00100086047
:1009B00048F22001C4F2030140F22310086048F21B
:1009C0000001C4F20301086820F00800086048F242
:1009D0001402C4F20302106820F47040106048F260
:1009E000A002C4F20302106820F00F00106010682B
:1009F0000430106048F2A402C4F203020620106022
:100A000048F20802C4F20302106820F008001060E7
:100A1000086840F00800086002F06AFC41F63560A2
:100A2000C0F2000043F68001C0F20101012202F091
:100A300055FD02B080BD000080B582B040F21200CA
:100A4000C2F200000190017843F61912C0F20102CF
:100A50000220002301F042FD01980178013101706C
:100A600000780E2807DBFFE740F21201C2F2000116
:100A70000C200870FFE740F21200C2F2000001787B
:100A800043F61912C0F20102022040F2FF7301F096
:100A900025FD02B080BD000080B540F2B200C2F278
:100AA00000000078002878D1FFE741F26000C2F230
:100AB00000000078C0B1FFE741F28D00C2F20000F3
:100AC000007888B9FFE741F28E00C2F2000000789A
:100AD00050B9FFE741F26001C2F200010878B0FAB4
:100AE00080F04009087058E041F28D00C2F2000029
:100AF000007840F2B001C2F2000191F90010884282
:100B000020D1FFE741F28E00C2F20000007840F2EF
:100B1000B101C2F2000191F90010884212D1FFE741
:100B200040F20400C2F20000007840F2B301C2F2C9
:100B300000010978884205D1FFE700F037F802F09C
:100B400043F828E041F2C500C2F20000007808B383
:100B5000FFE741F28D00C2F20000007840F2B001E0
:100B6000C2F2000191F90010884213D1FFE741F26F
:100B70008E00C2F20000007840F2B101C2F2000122
:100B800091F90010884205D1FFE700F00FF802F05C
:100B90001BF8FFE7FFE7FFE7FFE780BD40F2B20188
:100BA000C2F20001002008707047000040F2B2015C
:100BB000C2F20001012008707047000080B500F00B
:100BC000DFF9FFF7EBFF80BD80B584B040F2AC00E9
:100BD000C2F2000002900068FFF7A0FB01460298F5
:100BE0008DF80F10026807200521002301F076FC24
:100BF00041F2C500C2F200000078002840F0DF801A
:100C0000FFE741F2DB00C2F200000078012828D1A2
:100C1000FFE740F2AC00C2F2000001689DF80F004F
:100C2000084410F8040C38280EDCFFE740F2AC0052
:100C3000C2F2000001689DF80F00014411F8040C95
:100C4000013001F8040C0BE040F2AC00C2F20000ED
:100C500001689DF80F000144302001F8040CFFE703
:100C6000ACE041F2DB00C2F200000078022828D19B
:100C7000FFE740F2AC00C2F2000001689DF80F00EF
:100C8000084410F8050C34280EDCFFE740F2AC00F5
:100C9000C2F2000001689DF80F00014411F8050C34
:100CA000013001F8050C0BE040F2AC00C2F200008C
:100CB00001689DF80F000144302001F8050CFFE7A2
:100CC0007BE041F2DB00C2F200000078032835D15E
:100CD000FFE740F2AC00C2F2000001689DF80F008F
:100CE000084410F8070C38281BDCFFE740F2AC0082
:100CF000C2F2000002689DF80F100A4412F8071CA7
:100D0000013102F8071C00680078312808DBFFE792
:100D100040F2AC00C2F20000016830200870FFE72A
:100D20000BE040F2AC00C2F2000001689DF80F0039
:100D30000144312001F8070CFFE73DE041F2DB0000
:100D4000C2F200000078042835D1FFE740F2AC0081
:100D5000C2F2000001689DF80F00084410F8080C6A
:100D600030281BDCFFE740F2AC00C2F20000026852
:100D70009DF80F100A4412F8081C013102F8081CF3
:100D800000684078332808DBFFE740F2AC00C2F28D
:100D90000000016831204870FFE70BE040F2AC0032
:100DA000C2F2000001689DF80F000144302001F8F4
:100DB000080CFFE7FFE7FFE7FFE7FFE7B1E041F2DD
:100DC000DB00C2F200000078012816D1FFE740F2F4
:100DD000AC00C2F2000002681179013111710068A3
:100DE00000793A2808DBFFE740F2AC00C2F20000CD
:100DF000016830200871FFE792E041F2DB00C2F2A7
:100E000000000078022816D1FFE740F2AC00C2F2E1
:100E100000000268D1780131D1700068C0783628AE
:100E200008DBFFE740F2AC00C2F2000001683020AE
:100E3000C870FFE773E041F2DB00C2F20000007807
:100E4000032832D1FFE740F2AC00C2F20000026892
:100E500051780131517000680078322812D1FFE7D3
:100E600040F2AC00C2F2000000684078342808DB91
:100E7000FFE740F2AC00C2F2000001683020487089
:100E8000FFE711E040F2AC00C2F2000000684078D9
:100E90003A2808DBFFE740F2AC00C2F2000001682C
:100EA00030204870FFE7FFE738E041F2DB00C2F294
:100EB00000000078042830D1FFE740F2AC00C2F215
:100EC0000000026811780131117000680078332841
:100ED00008DBFFE740F2AC00C2F2000001683020FE
:100EE0000870FFE740F2AC00C2F200000068007832
:100EF000322811D1FFE740F2AC00C2F200000068D6
:100F00004078342808DBFFE740F2AC00C2F2000072
:100F1000016830204870FFE7FFE7FFE7FFE7FFE7E2
:100F2000FFE741F2C600C2F200000078C8B1FFE757
:100F300041F2D900C2F20000007890B1FFE740F220
:100F4000AC00C2F2000000680190FF206621002280
:100F500000F0A6FF019A03B20720052101F0BEFAB6
:100F60000BE040F2AC00C2F200000268072005214D
:100F70006FF01F0301F0B2FAFFE704B080BD00007C
:100F800040F2B001C2F20001FF20087040F2B1014E
:100F9000C2F20001087040F2B301C2F20001002069
:100FA000087041F2C601C2F20001087070470000EB
:100FB00080B582B0019041F2C601C2F20001012069
:100FC000087001980178407801EB810100EB410045
:100FD000A0F5047040F2B001C2F20001087001985F
:100FE000C178007901EB810100EB4100A0F50470AC
:100FF00040F2B101C2F20001087041F2C500C2F234
:101000000000007840B3FFE740F2B000C2F20000F9
:1010100090F9000038B9FFE740F2B301C2F20001D5
:101020000020087017E040F2B000C2F2000090F912
:1010300000000B2807DCFFE740F2B301C2F2000119
:101040000020087006E040F2B301C2F20001012066
:101050000870FFE7FFE719E001980090FFF75EF9DD
:101060000099084410F8020C412807D1FFE740F22C
:10107000B301C2F200010020087006E040F2B301A3
:10108000C2F2000101200870FFE7FFE741F2C5004E
:10109000C2F200000078F8B1FFE740F2B000C2F2FF
:1010A000000090F90000182815DBFFE740F2B001BE
:1010B000C2F2000191F900004AF6AB22C2F6AA2260
:1010C00050FB02F39A0802EBD37202EB4202A0EB50
:1010D000C2000870FFE72DE040F2B000C2F200004D
:1010E00090F900000D2815DBFFE740F2B001C2F2D5
:1010F000000191F900004AF6AB22C2F6AA2250FB89
:1011000002F35A0802EBD37202EB4202A0EB820018
:101110000870FFE740F2B000C2F2000090F9000052
:1011200038B9FFE740F2B001C2F200010C200870AC
:10113000FFE7FFE740F2B100C2F2000090F90000C3
:101140003C2815DBFFE740F2B101C2F2000191F942
:10115000000048F68902C8F6880252FB00035A09CB
:1011600002EBD372C2EB0212A0EB82000870FFE721
:1011700002B080BD80B501F013FD40F2B200C2F2B2
:101180000000007828B1FFE7FFF708FDFFF7F8FE41
:10119000FFE780BD82B0002001900090FFE700983B
:1011A000B0F57A7F0FDAFFE7009940F2B800C2F29B
:1011B000000050F82110019808440190FFE70098C2
:1011C00001300090EBE7019844F6D351C1F262017F
:1011D000A0FB0110800902B07047000081B00090B0
:1011E000FFE7009820B1FFE7009801380090F8E78A
:1011F00001B0704780B582B00190FFE7019840B11F
:10120000FFE745F6C240FFF7E9FF0198013801907A
:10121000F4E702B080BD000041F2C500C2F2000058
:10122000007888B1FFE741F28D00C2F2000000783B
:10123000012808DBFFE741F28D01C2F200010878C6
:1012400001380870FFE710E041F28D00C2F20000A3
:101250000078022808DBFFE741F28D01C2F20001AD
:10126000087801380870FFE7FFE7704741F28E0009
:10127000C2F200000078012808DBFFE741F28E018E
:10128000C2F20001087801380870FFE770470000DB
:1012900082B00190FFE7019878B1FFE740F23E602D
:1012A0000090FFE7009820B1FFE700980138009018
:1012B000F8E7019801380190EDE702B070470000AF
:1012C00082B00190FFE7019878B1FFE740F23E60FD
:1012D0000090FFE7009820B1FFE7009801380090E8
:1012E000F8E7019801380190EDE702B0704700007F
:1012F00080B584B0022001F07DFA002001F0DEF913
:1013000043F65F12C0F20102042003214FF0FF33C5
:1013100001F0E4F841F2C600C2F20000007850B1DA
:10132000FFE702F06FFD014641F29000C2F20000BB
:10133000FFF709F80AE041F29000C2F2000043F61C
:101340001011C0F20101FEF7FEFFFFE740F21400AA
:10135000C2F2000041F29001C2F200010160006897
:101360000090FF206621002200F09AFD009A03B24F
:101370000721084601F0B2F843F61912C0F2010243
:1013800002200C21019140F2FF7301F0A7F80199AE
:1013900043F64812C0F20102062003904FF0FF33DB
:1013A000029301F09BF8029B039843F63B12C0F2B4
:1013B00001020D2101F092F804B080BD80B584B027
:1013C00041F2C700C2F200000078002878D1FFE7A0
:1013D00041F2A500C2F20000007840B1FFE741F2FF
:1013E000A500C2F200000078012868D1FFE7684636
:1013F0005023036045F2FE52C0F2000219205A2128
:1014000000F066FD41F28D00C2F2000000788DF818
:101410000F0041F28E00C2F2000000788DF80E003D
:1014200041F28F00C2F2000000788DF80D009DF8A7
:101430000D0044F24541C0F24441A0FB0132C2EB31
:101440000212A0EB82008DF80C009DF80E00A0FBAC
:101450000132C2EB0212A0EB82008DF80B009DF866
:101460000F0045F25653C1F25553A0FB03C202EBE5
:101470004202A0EB820000EB80009DF80E20A2FB50
:1014800003321044A0FB0121C1EB0111A0EB81004C
:101490008DF80A009DF80A000E214FF6E0720192C5
:1014A00002F05AFC019A9DF80B00152102F054FC41
:1014B0009DF80C0017211F2202F04EFCFFE7FFE70A
:1014C00004B080BD80B582B0002001F0F7F840F292
:1014D000B500C2F20000007860B9FFE768468C21D1
:1014E000016048F67602C0F200021920502300F095
:1014F000EFFC14E040F2B500C2F2000000780128D1
:101500000CD1FFE768468C2101604DF6F672C0F2FF
:1015100000021920502300F0DBFCFFE7FFE740F258
:10152000B501C2F200010878B0FA80F040090870F5
:1015300002B080BD80B586B0022001F05BF90020CA
:1015400001F0BCF843F61912C0F2010203200C218D
:10155000039140F2FF7300F0C1FF02F0B1FC0146BD
:1015600041F2C900C2F200000290FEF7ECFE0299BF
:1015700040F23C00C2F200000160026807200590C2
:101580000A216FF01F0300F0A9FF68465023036093
:1015900045F2FE52C0F2000219205A2100F098FCD8
:1015A000FFF70CFF0399059843F65512C0F20102AC
:1015B0004FF0FF33049300F091FF049B059843F62E
:1015C0002212C0F201020D2100F088FF06B080BD9A
:1015D00080B588B0022001F00DF9002001F06EF80E
:1015E00041F2DA00C2F200000078012823D1FFE7BF
:1015F00043F62212C0F201020720079001214FF4A6
:10160000FC6300F06BFF02F05BFC014641F2DE0080
:10161000C2F200000690FEF796FE069A079840F286
:10162000AC01C2F200010A600A6805216FF01F03D5
:1016300000F054FF60E041F2D900C2F200000078EF
:10164000012858D1FFE7FF206621002200F028FC86
:1016500003B243F65512C0F201020620012100F048
:101660003DFF41F2C600C2F20000007850B1FFE732
:1016700002F0C8FB014641F2DE00C2F20000FEF7B4
:1016800062FE09E002F01CFC014641F2DE00C2F2FB
:101690000000FEF758FEFFE740F2AC01C2F2000185
:1016A00041F2DE00C2F20000086041F2C600C2F260
:1016B0000000007890B1FFE740F2AC00C2F20000F9
:1016C00000680590FF206621002200F0E9FB059AE2
:1016D00003B20720052100F001FF0BE040F2AC004F
:1016E000C2F200000268072005216FF01F0300F01E
:1016F000F5FEFFE7FFE7FFE741F2C500C2F2000099
:10170000007870B1FFE741F2DB01C2F20001012075
:10171000087040F2A901C2F200010878023808708E
:10172000FFE740F2A900C2F20000007843F6201261
:10173000C0F201020621049140F2FF73019300F010
:10174000CDFE019B43F61912C0F2010202200C21CA
:10175000029100F0C3FE0299049843F62B12C0F2E6
:1017600001024FF0FF33039300F0B8FE039B04988F
:1017700043F61D12C0F201020D2100F0AFFE08B0C9
:1017800080BD000045F21440C4F200000068C006AD
:1017900000280DD5FFE745F21C41C4F200011020DE
:1017A000086041F26301C2F2000101200870FFE706
:1017B00045F21440C4F200000068000700280DD56F
:1017C000FFE745F21C41C4F200010820086041F225
:1017D0006201C2F2000101200870FFE745F21440E7
:1017E000C4F200000068800700280DD5FFE745F22D
:1017F0001C41C4F200010220086041F26101C2F202
:10180000000101200870FFE77047000046F2144015
:10181000C4F200000068800600280DD5FFE746F2FC
:101820001C41C4F200012020086041F26401C2F2B0
:10183000000101200870FFE77047000044F21440E7
:10184000C4F202000068000700280DD5FFE744F24B
:101850001C41C4F202010820086041F26501C2F295
:10186000000101200870FFE77047000082B001907E
:101870000198D6280BD0FFE70198A0F1D60143F2DA
:10188000E060C0F2020090FBF1F0009002E0002066
:101890000090FFE7009802B07047000041F2C500D9
:1018A000C2F20000007888B1FFE741F28D00C2F279
:1018B00000000078162808DCFFE741F28D01C2F233
:1018C0000001087801300870FFE710E041F28D0058
:1018D000C2F2000000780B2808DCFFE741F28D011E
:1018E000C2F20001087801300870FFE7FFE7704797
:1018F00041F28E00C2F2000000783A2808DCFFE7CF
:1019000041F28E01C2F20001087801300870FFE751
:101910007047000080B582B0FFE741F21800C4F2C2
:1019200001000068C006002862D4FFE741F2000011
:10193000C4F2010000688DF807009DF807000D282B
:1019400001D1FFE7E9E79DF807000A282DD1FFE75D
:1019500041F2A000C2F20000036841F2EE02C2F2BE
:1019600000020021D1540068022817D3FFE741F29A
:10197000EE00C2F20000007840280FD1FFE741F2EC
:10198000A000C2F20000026841F2EE00C2F20000C4
:10199000411CFEF7A3FC00F01BF9FFE741F2A00198
:1019A000C2F200010020086022E041F2A000C2F271
:1019B000000000687E280FD8FFE79DF8070041F27D
:1019C000A003C2F200031A68511C196041F2EE0133
:1019D000C2F20001885406E041F2A001C2F2000107
:1019E00000200860FFE79DF8070001F019FF94E769
:1019F00002B080BD80B582B040F23900C2F2000072
:101A00000190017843F61912C0F20102032000236D
:101A100000F064FD019801780131017000780E2812
:101A200007DBFFE740F23901C2F200010C20087029
:101A3000FFE740F23900C2F20000017843F61912C4
:101A4000C0F20102032040F2FF7300F047FD02B034
:101A500080BD000080B584B0039041F2A500C2F2C1
:101A60000000007840B1FFE741F2A500C2F200009B
:101A70000078012812D1FFE7039A072002900A217B
:101A80000191002300F02AFD02F01AFA01990246A2
:101A900002986FF01F0300F021FDFFE704B080BD46
:101AA00080B582B08DF807008DF806108DF80520FE
:101AB00000939DF807009DF806102D2201F084FB8D
:101AC00041F25801C2F20001002008709DF80500A3
:101AD00040F20401C2F200010870009A43F2BD0016
:101AE000C0F200004BF20041C0F2C44101F098FC8A
:101AF00002B080BD45F2FC30C4F200000068C0F3C3
:101B00004000704745F2FC30C4F200000068C0F3AA
:101B1000C000704745F2FC30C4F200000068C0F31A
:101B20000010704746F2FC30C4F200000068C0F3B9
:101B30004010704744F2FC30C4F202000068C0F369
:101B4000C000704782B001904EF27001C4F20F01E4
:101B50000091086840F000400860086840F40060A8
:101B600008604EF26002C4F20F02106820F4F860C0
:101B70001060106800F5A8601060086820F0700020
:101B8000086008680860086820F400500860086869
:101B900040F080400860086820F0FE50019A00EB99
:101BA00082500860FFE74EF25000C4F20F00006858
:101BB0004006002801D4FFE7F5E74EF27001C4F2B9
:101BC0000F01086820F40060086002B07047000050
:101BD00080B5A2B041F2EE00C2F2000043F6180157
:101BE000C0F20101FEF7B8FB014602A80190FEF722
:101BF000AAFB019841F26002C2F2000201211170B9
:101C000043F62A01C0F20101FEF78FFB18B9FFE786
:101C100002F02EFC8EE043F64901C0F2010102A859
:101C2000FEF783FB18B9FFE702F01AFD81E043F6E7
:101C30003B01C0F2010102A8FEF777FB48B9FFE7BC
:101C400041F2C701C2F2000101200870FFF73AFC1F
:101C50006EE043F62301C0F2010102A8FEF765FB26
:101C600038B9FFE7FFF7D8FA02F02AF9FFF7F2FEDA
:101C70005DE043F61101C0F2010102A8FEF755FB39
:101C800038B9FFE7FFF70AFE02F01AF9FFF7E2FEA4
:101C90004CE043F61A01C0F2010102A8FEF745FB31
:101CA00038B9FFE7FFF7E2FA02F00AF9FFF7D2FED0
:101CB0003BE043F60801C0F2010102A8FEF735FB44
:101CC00038B9FFE7FFF714FE02F0FAF8FFF7C2FE9B
:101CD0002AE043F65901C0F2010102A8FEF725FBF4
:101CE00038B9FFE701F0C6FD02F0EAF8FFF7B2FEEF
:101CF00019E043F64101C0F2010102A8FEF715FB0D
:101D000018B9FFE7FFF736FA0CE043F63001C0F2EE
:101D1000010102A8FEF709FB18B9FFE700F054FF24
:101D2000FFE7FFE7FFE7FFE7FFE7FFE7FFE7FFE783
:101D3000FFE7FFE743F2FE70C0F2010001F088FD0B
:101D400002A801F085FD43F6B600C0F2010001F0E3
:101D50007FFD22B080BD000010B54EF20861C4F2D4
:101D60000F01086840F010000860FFE74EF60820F9
:101D7000C4F20F000068C006002801D4FFE7F5E7B1
:101D800044F22043C4F20203186840F030001860A7
:101D900044F21C52C4F20202106840F0300010609D
:101DA00044F22C5EC4F2020EDEF80000112161F351
:101DB0001740CEF8000044F22851C4F2020108682E
:101DC00020F03000086044F2004CC4F2020CDCF851
:101DD000000040F00A00CCF80000DCF8000020F021
:101DE0000100CCF80000086820F00B0008601868BB
:101DF00020F00B001860106840F00B001060DEF857
:101E000000004FF2FF04A043CEF80000DCF8000011
:101E100020F00400CCF80000186840F004001860BE
:101E2000106820F004001060086840F004000860AA
:101E300010BD000080B582B0FEF756FD019041F262
:101E40005C00C2F200000068C0087C2810D8FFE7E0
:101E5000019841F25C01C2F200010B6840F2B80245
:101E6000C2F2000242F82300086801300860FFE770
:101E700002B080BD80B582B044F20801C4F2020114
:101E800000910020086041F288300190FFF718FAB5
:101E9000009A019802211160FFF712FA02B080BD8A
:101EA00081B08DF803008DF802108DF801209DF8A7
:101EB000010000F0F80000029DF8021001F0FC01A2
:101EC00040EAC1009DF8031040EAD10001B070471C
:101ED00080B586B084460898ADF816C0ADF81410E9
:101EE0000492ADF80E30ADF80C000020ADF80A00F9
:101EF000BDF80E00ADF80800BDF90E00BDF90C10DC
:101F0000013948430190BDF9160040F21001C2F2B8
:101F10000001B1F9001088421DDAFFE7BDF9140095
:101F2000BDF90C10401A013040F20E01C2F200015E
:101F3000B1F9001088420EDAFFE7BDF91600BDF9CD
:101F40000E100844012806DBFFE7BDF91400B0F1CC
:101F5000FF3F01DCFFE7E2E0BDF90E0040F21001B7
:101F6000C2F20001B1F9001088420BDCFFE7BDF9B5
:101F70000C0040F20E01C2F20001B1F900108842DB
:101F800001DDFFE7CBE0BDF91600BDF90E100844F6
:101F9000013840F21001C2F20001B1F9001088428C
:101FA00014DBFFE7BDF81600BDF80E10014440F247
:101FB0001000C2F200000288891AADF80A100088E9
:101FC000BDF81610401AADF80E00FFE7BDF9140079
:101FD000BDF90C10401A0130B0F1FF3F12DCFFE7F1
:101FE000019ABDF90C10BDF91400C0430844BDF9B5
:101FF000081000FB11200190BDF814000130ADF86D
:102000000C00FFE7BDF91600B0F1FF3F15DCFFE75C
:10201000BDF80E00BDF816100844ADF80E00BDF86E
:1020200016004042ADF80A000198BDF91610401A9A
:1020300001900020ADF81600FFE7BDF9140040F252
:102040000E01C2F20001B1F90010884213DBFFE774
:10205000BDF80C20BDF8141040F20E00C2F20000D2
:102060000388C91AC9431144ADF80C10008801381F
:10207000ADF81400FFE7BDF80C00BDF81430181AD5
:10208000411CBDF81600BDF80E200244013AC9B249
:10209000D2B2C0B2DBB202F0A1F90020ADF8140058
:1020A000FFE7BDF91400BDF90C10884234DAFFE7F0
:1020B0000020ADF81600FFE7BDF91600BDF90E10BF
:1020C000884217DAFFE70498019900EB4100407855
:1020D00002F006FB0498019910F8110002F000FBD1
:1020E000019801300190FFE7BDF816000130ADF80E
:1020F0001600E1E70198BDF90A1008440190019823
:10210000BDF90810A0EB41000190FFE7BDF81400F5
:102110000130ADF81400C4E701F00CFEFFE706B093
:1021200080BD000010B586B08C4686460998089997
:10213000ADF816E0ADF814C08DF81320ADF81030EE
:10214000ADF80E108DF80D00BDF9160040F210012B
:10215000C2F20001B1F90010884222DAFFE7BDF9AE
:10216000140040F20E01C2F20001B1F900108842E1
:1021700017DAFFE7BDF916009DF80D1001EB4101DC
:1021800000EB4100013800280BD4FFE7BDF9140033
:102190009DF80D1000EBC1000138B0F1FF3F01DCEC
:1021A000FFE798E000200290FFE70298052800F37F
:1021B0009280FFE70298052804D1FFE700208DF800
:1021C0000C000DE09DF8130000EB80000299014423
:1021D00045F28200C0F20000405C8DF80C00FFE781
:1021E00000200190FFE7019807286FDCFFE79DF8CA
:1021F0000C00C00760B3FFE79DF80D0001280FD168
:10220000FFE7BDF8160002990844BDF81410019AC2
:102210001144BDF8102000B209B200F025F916E013
:10222000BDF8161002989DF80D3000FB0310BDF8A4
:102230001420019901FB0321BDF81020EC46CCF8D5
:10224000002000B209B21A4600F096F9FFE733E029
:10225000BDF90E00BDF9101088422CD0FFE79DF8A3
:102260000D0001280FD1FFE7BDF8160002990844C0
:10227000BDF81410019A1144BDF80E2000B209B245
:1022800000F0F2F816E0BDF8161002989DF80D3037
:1022900000FB0310BDF81420019901FB0321BDF8D8
:1022A0000E20EC46CCF8002000B209B21A4600F02D
:1022B00063F9FFE7FFE7FFE79DF80C0040088DF8A2
:1022C0000C00FFE70198013001908CE7FFE70298CE
:1022D0000130029069E706B010BD000080B58AB0F9
:1022E000DDF830C009900891079206930798099984
:1022F000401A039001900198B0F1FF3F04DCFFE722
:10230000019840420190FFE706980899401A029010
:1023100000900098B0F1FF3F04DCFFE700984042D6
:102320000090FFE70198009988424DDBFFE7039892
:10233000B0F1FF3F13DCFFE707980590099807907D
:1023400005980990039840420390069804900898D5
:10235000069004980890029840420290FFE709987E
:102360000590FFE70598079988422CDCFFE708985D
:102370000299059A099BD21A5143039A91FBF2F1F3
:10238000084401380490BDF91400BDF91010BDF8DF
:10239000302000F069F808980299059A099BD21A32
:1023A0005143039A91FBF2F108440490BDF91400E3
:1023B000BDF91010BDF8302000F056F8FFE7059881
:1023C00001300590CEE74CE00298B0F1FF3F13DCFE
:1023D000FFE70798059009980790059809900398DA
:1023E000404203900698049008980690049808903C
:1023F000029840420290FFE708980490FFE7049893
:10240000069988422CDCFFE709980399049A089BF7
:10241000D21A5143029A91FBF2F108440138059017
:10242000BDF91400BDF91010BDF8302000F01CF803
:1024300009980399049A089BD21A5143029A91FB76
:10244000F2F108440590BDF91400BDF91010BDF873
:10245000302000F009F8FFE7049801300490CEE73F
:10246000FFE70AB080BD000080B582B0ADF806007D
:10247000ADF80410ADF80220BDF9060000281BD409
:10248000FFE7BDF9060040F21001C2F20001B1F908
:102490000010884210DAFFE7BDF9040000280BD4D1
:1024A000FFE7BDF9040040F20E01C2F20001B1F9EC
:1024B0000010884201DBFFE70EE09DF806209DF842
:1024C00004301046194601F089FFBDF8020001F002
:1024D00077FF01F02FFCFFE702B080BD80B588B028
:1024E000ADF81A00ADF818100592ADF812300020C2
:1024F0000390BDF81800102803DBFFE700200790C9
:1025000036E0FFE70598007878B3FFE7BDF81A00DA
:1025100000EB40004000BDF8181001EB81014900BC
:10252000059A1278BDF91230EE464FF0010CCEF844
:1025300004C04FF0000CCEF800C000B209B2FFF7A3
:10254000F1FD059801300590BDF81A000130ADF895
:102550001A00BDF81A00152803DBFFE7039807905F
:1025600006E0039801300390CCE703980790FFE75B
:10257000079808B080BD000080B584B084460698F6
:10258000ADF80EC0ADF80C10ADF80A20ADF808306B
:10259000ADF806009DF807008DF805009DF80600CF
:1025A0008DF80400BDF90E0040F21001C2F20001E6
:1025B000B1F9001088420BDAFFE7BDF90C0040F2D8
:1025C0000E01C2F20001B1F90010884201DBFFE701
:1025D00072E0BDF90E00BDF90A100844013840F25E
:1025E0001001C2F20001B1F9001088420BDBFFE7D5
:1025F00040F21000C2F200000088BDF80E10401A30
:10260000ADF80A00FFE7BDF90C00BDF90810084459
:10261000013840F20E01C2F20001B1F90010884207
:102620000BDBFFE740F20E00C2F200000088BDF8AD
:102630000C10401AADF80800FFE7BDF80E00BDF819
:102640000A1001444A1EBDF80C10BDF808300B44B6
:10265000013BD2B2DBB2C0B2C9B201F0BFFEBDF8DD
:102660000800ADF80C00FFE7BDF90C00012820DBE5
:10267000FFE7BDF80A00ADF80E00FFE7BDF90E0058
:1026800001280FDBFFE79DF8050002F029F89DF80F
:10269000040002F025F8FFE7BDF80E000138ADF8A0
:1026A0000E00EBE7FFE7BDF80C000138ADF80C00B9
:1026B000DAE701F03FFBFFE704B080BD80B582B0F0
:1026C000ADF8060040F21000C2F20000B0F90020A0
:1026D00040F20E00C2F20000B0F90030BDF8060072
:1026E0006946086000210846FFF746FF02B080BD3A
:1026F00080B582B08DF8070045F27D50C0F2000031
:1027000001F046FA9DF80700012813D1FFE745F2D2
:10271000B850C0F2000001F0E5F940F2B401C2F295
:1027200000010220087041F27D01C2F20001012087
:10273000087006E045F2C550C0F2000001F0D2F981
:10274000FFE745F2D250C0F2000001F0CBF99DF84E
:102750000700032807D1FFE7362001F093FFC020D0
:1027600001F0BEFFFFE79DF8070041F28C01C2F2C5
:102770000001087000210091084600F01FF8009841
:1027800040F20C02C2F2000240F2FF711180FFF72A
:1027900095FF02B080BD000080B582B00190019825
:1027A00020B1FFE7212001F06DFF03E0202001F0C0
:1027B00069FFFFE701F0BEFA02B080BD82B0019070
:1027C00000910198142804D8FFE70098102801D33D
:1027D000FFE70CE0019841F28401C2F200010860B9
:1027E000009841F28801C2F200010860FFE702B0E0
:1027F0007047000080B582B08DF80700362001F0E8
:1028000041FF9DF8070000F0030141F27C00C2F295
:1028100000000170007801460091032800F27980E1
:102820000099DFE801F0021F3C5941F28C00C2F22E
:1028300000000078032804D1FFE7C02001F050FF1A
:1028400003E0C82001F04CFFFFE740F21001C2F2A4
:1028500000018020088040F20E01C2F20001A02099
:10286000088056E041F28C00C2F200000078032894
:1028700004D1FFE7A02001F033FF03E0A82001F01E
:102880002FFFFFE740F21001C2F20001A0200880F4
:1028900040F20E01C2F200018020088039E041F2CE
:1028A0008C00C2F200000078032804D1FFE700206A
:1028B00001F016FF03E0082001F012FFFFE740F2ED
:1028C0001001C2F200018020088040F20E01C2F225
:1028D0000001A02008801CE041F28C00C2F2000040
:1028E0000078032804D1FFE7602001F0F9FE03E03F
:1028F000682001F0F5FEFFE740F21001C2F200018E
:10290000A020088040F20E01C2F200018020088061
:10291000FFE701F00FFA02B080BD000080B58CB077
:1029200043F69F00C0F2010000F092FF43F6620000
:10293000C0F2010000F08CFFFF220A9210461146FF
:10294000FFF7AEFA03B243F6D102C0F20102002152
:102950000B910846FFF7C2FD0A9A10461146FFF791
:102960009FFA01460B980BB243F6B902C0F201027E
:102970000121FFF7B3FDFFE744F20400C4F20200B7
:10298000006858B9FFE743F6CF00C0F2010000F03D
:102990005FFF4FF49670FEF793FCEDE740F21900ED
:1029A000C2F20000059000F0D9FE2C20029000F049
:1029B000BDFE40F28800C2F20000019000F0CEFEA1
:1029C000029800F0B3FE40F26800C2F200000490EA
:1029D00000F0C4FE029800F0A9FE40F24000C2F2EE
:1029E0000000069000F0BAFE029800F09FFE40F250
:1029F0006000C2F20000089000F0B0FE029800F003
:102A000095FE0A20039000F091FE039800F008FF65
:102A1000059800F01DFF029800F002FF019800F0F9
:102A200017FF029800F0FCFE049800F011FF0298D6
:102A300000F0F6FE069800F00BFF029800F0F0FEA2
:102A4000089800F005FF029800F0EAFE039800F0F5
:102A5000E7FEFF200790002209921146FFF720FAB7
:102A6000049A014609980BB20421FFF737FD099A31
:102A700007981146FFF714FA059A014609980BB218
:102A80000521FFF72BFD099A07981146FFF708FA71
:102A9000069A014609980BB20621FFF71FFD099A15
:102AA00007981146FFF7FCF9089A014609980BB2FE
:102AB0000721FFF713FDFFE744F20400C4F2020010
:102AC000006841F21801C4F201010A6840F00101F6
:102AD000D206002A58BF084618B3FFE741F2180093
:102AE000C4F201000068C00600280ED4FFE741F2DE
:102AF0000000C4F20100016841F2C400C2F200000B
:102B00000170007800F08CFE0AE041F21800C4F277
:102B100001000068C006002801D5FFE7FFE7FFE7D6
:102B2000CAE7FF20002200921146FFF7B9F90146DB
:102B300000980BB243F6E702C0F201020821FFF74A
:102B4000CDFC43F68200C0F2010000F081FE0CB023
:102B500080BD000081B04EF20860C4F20F00016831
:102B600041F0040101600068009046F20041C4F2A7
:102B70000001086840F08000086046F21C51C4F271
:102B80000001086840F08000086046F20051C4F27D
:102B90000001086840F08000086001B07047000044
:102BA0004EF21001CEF200010020086046F2FC3225
:102BB000C4F20002116821F08001116041F2C801E5
:102BC000C2F20001087070474EF21001CEF200010F
:102BD000002008604EF21403CEF2000349F63F4293
:102BE0001A604EF21802CEF2000210604EF6205229
:102BF000CEF20002106820F07F40106007200860CD
:102C000041F2C801C2F200010120087070470000C3
:102C100080B582B04EF20860C4F20F00016841F046
:102C2000160101600068019046F20041C4F2000103
:102C3000086820F02000086046F21C51C4F2000130
:102C4000086840F02000086045F20042C4F200022B
:102C5000106820F01000106045F21C51C4F2000111
:102C6000086840F01000086044F20043C4F2020318
:102C7000186820F00800186044F21C53C4F20203E4
:102C8000186840F008001860106820F00800106014
:102C9000086840F008000860106820F0020010602A
:102CA000086840F00200086000F002F802B080BD41
:102CB0002DE9F04146F20441C4F20001086820F019
:102CC0002000086046F20841C4F20001086820F0C4
:102CD0002000086046F20C41C4F20001086840F090
:102CE0002000086046F21C41C4F200012020086068
:102CF00046F21041C4F20001086840F0200008606C
:102D00004EF20042CEF200021068A02363F3174097
:102D100010604EF20011CEF20001086840F004008D
:102D2000086045F20446C4F20006306820F0100046
:102D3000306045F20845C4F20005286820F0100014
:102D4000286045F20C44C4F20004206840F01000F2
:102D5000206045F21C4EC4F2000E1020CEF8000098
:102D600045F2104CC4F2000CDCF8000040F01000FA
:102D7000CCF80000106863F30F201060086840F082
:102D80000200086044F20443C4F20203186820F011
:102D90000800186044F20843C4F20203186820F0E7
:102DA0000800186044F20C43C4F20203186840F0B3
:102DB0000800186044F21C43C4F2020308201860A3
:102DC00044F21047C4F202073B6843F008033B603B
:102DD0004EF20448CEF20008D8F80070052363F3E1
:102DE0004717C8F800700F6847F010070F60376882
:102DF00027F0080737602F6827F008072F6027683B
:102E000047F008072760CEF80000DCF8000040F02B
:102E10000800CCF80000106863F34F3010600868B9
:102E200040F002000860306820F00200306028683E
:102E300020F002002860206840F00200206002209C
:102E4000CEF80000DCF8000040F00200CCF80000F2
:102E5000106863F34F301060086840F002000860AB
:102E6000BDE8F08141F2DD00C2F2000001780131DD
:102E7000017000780E2809DCFFE746F2FC31C4F24D
:102E80000001086880F08000086008E046F2FC312C
:102E9000C4F20001086820F080000860FFE741F2FA
:102EA000DD00C2F2000000781E2807DBFFE741F2D8
:102EB000DD01C2F2000100200870FFE7704700004A
:102EC00080B58EB041F2C500C2F200000078002843
:102ED00018BF01208DF817009DF8173041F28D00C2
:102EE000C2F20000007841F28E01C2F200010A78BD
:102EF00041F28F01C2F2000191F800C040F20401DA
:102F0000C2F2000191F800E06946C1F80CE0C1F896
:102F100008C04A60086043F2EE72C0F2010206A8DF
:102F20000490202101F0FAFB049800F017FC0EB089
:102F300080BD000080B540F2A900C2F20000007818
:102F400043F62012C0F2010206210023FFF7C6FA61
:102F500041F2DB00C2F20000007840B1FFE741F22D
:102F6000DB00C2F200000078022808D1FFE740F23F
:102F7000A901C2F2000108780238087007E040F2A7
:102F8000A901C2F20001087801380870FFE740F299
:102F9000A900C2F20000007843F62012C0F201023C
:102FA000062140F2FF73FFF799FA80BD80B582B029
:102FB00040F2A800C2F200000190017843F6191215
:102FC000C0F2010202200023FFF788FA019801787D
:102FD0000131017000780E2807DBFFE740F2A801FD
:102FE000C2F200010C200870FFE740F2A800C2F214
:102FF0000000017843F61912C0F20102022040F2EB
:10300000FF73FFF76BFA02B080BD000080B586B099
:1030100040F20401C2F2000102910878B0FA80F097
:103020004009087040F2AC00C2F200000390026850
:10303000072005210023FFF751FA029903980A7827
:103040005021002A08BF4121059100680490FDF736
:1030500065F9049A01460598114401F8020C41F201
:10306000C600C2F200000078C8B1FFE741F2D90003
:10307000C2F20000007890B1FFE740F2AC00C2F26B
:10308000000000680190FF2066210022FEF708FF83
:10309000019A03B207200521FFF720FA0BE040F266
:1030A000AC00C2F200000268072005216FF01F0388
:1030B000FFF714FAFFE706B080BD000080B582B0CC
:1030C00041F28F01C2F200010191087801300870CD
:1030D00041F2C001C2F20001086801300860FEF749
:1030E0006DF9019800783C285EDBFFE741F28F0123
:1030F000C2F200010020087041F28E00C2F200000E
:1031000001780131017041F25802C2F2000201213E
:10311000117000783C2846DBFFE741F28E01C2F2D5
:1031200000010020087041F2C500C2F200000078E2
:1031300098B1FFE741F28D00C2F200000178013141
:1031400001700078182807DBFFE741F28D01C2F219
:10315000000100200870FFE724E041F28D00C2F278
:10316000000001780131017000780D2807DBFFE7CE
:1031700041F28D01C2F2000101200870FFE741F227
:103180008D00C2F2000000780C280AD1FFE740F25F
:103190000401C2F200010878B0FA80F0400908701A
:1031A000FFE7FFE7FFE7FFE741F2C700C2F20000D9
:1031B000007828B9FFE700F083FEFEF74BFCFFE73D
:1031C000FDF76AFC02B080BD81B08DF803008DF878
:1031D00002108DF8012041F2C500C2F20000007813
:1031E000A8B1FFE79DF8030018280FDBFFE79DF863
:1031F00003004AF6AB21C0F6AA21A0FB012101EB96
:103200004101A0EBC1008DF80300FFE71CE09DF831
:1032100003000D280FDBFFE79DF8030045F2565130
:10322000C1F25551A0FB012101EB4101A0EB81004E
:103230008DF80300FFE79DF8030020B9FFE70C209D
:103240008DF80300FFE7FFE79DF802003C280FDB45
:10325000FFE79DF8020044F24541C0F24441A0FB63
:103260000121C1EB0111A0EB81008DF80200FFE705
:103270009DF801003C280FDBFFE79DF8010044F2B8
:103280004541C0F24441A0FB0121C1EB0111A0EB7B
:1032900081008DF80100FFE79DF8030041F28D01E8
:1032A000C2F2000108709DF8020041F28E01C2F2E4
:1032B000000108709DF8010041F28F01C2F2000187
:1032C000087041F25801C2F200010020087001B0FC
:1032D0007047000080B52421C4F20301012008607A
:1032E00041F26800C2F200000068804780BD000023
:1032F00081B04EF20460C4F20F00016841F0020197
:1033000001600068009041F20C01C4F2030100204A
:10331000086041F20002C4F20302106041F20403AB
:10332000C4F2030302221A6041F22803C4F2030329
:103330004FF0FF321A6041F23802C4F2030210600B
:103340000120086001B0704780B542F22401C4F248
:1033500003010120086041F26C00C2F20000006825
:10336000804780BD83B00290019100924EF20461CB
:10337000C4F20F01086840F004000860029841F2AE
:103380006C01C2F20001086042F20C01C4F20301B8
:103390000020086042F20002C4F20302106042F210
:1033A0000403C4F2030302221A60019A013A42F2B2
:1033B0002803C4F203031A6042F23802C4F2030283
:1033C000106042F22402C4F203020120106042F2B3
:1033D0001802C4F2030210604EF21443CEF200034E
:1033E0001A6822F07F42DDF800C042EA4C721A608F
:1033F0004EF20013CEF200034FF400021A60086090
:1034000003B0704780B543F22401C4F203010120E8
:10341000086041F27000C2F200000068804780BD81
:1034200083B00290019100924EF20461C4F20F0148
:10343000086840F008000860029841F27001C2F28A
:103440000001086043F20C01C4F20301002008608F
:1034500043F20002C4F20302106043F20403C4F218
:10346000030302221A60019A013A43F22803C4F2CC
:1034700003031A6043F23802C4F20302106043F2FD
:103480002402C4F203020120106043F21802C4F2C5
:10349000030210604EF22043CEF200031A6822F0BD
:1034A0007F42DDF800C042EA4C721A604EF204130B
:1034B000CEF2000308221A60086003B070470000D3
:1034C00080B544F22401C4F203010120086041F2F6
:1034D0007400C2F200000068804780BD83B0029093
:1034E000019100924EF20461C4F20F01086840F0AD
:1034F00010000860029841F27401C2F200010860F5
:1035000044F20C01C4F203010020086044F20002FE
:10351000C4F20302106044F20403C4F20303022263
:103520001A60019A013A44F22803C4F203031A60B4
:1035300044F23802C4F20302106044F22402C4F2DE
:1035400003020120106044F21802C4F2030210606A
:103550004EF24443CEF200031A6822F47F02DDF8F3
:1035600000C042EA4C521A604EF20813CEF2000339
:1035700040221A60086003B07047000080B545F231
:103580002401C4F203010120086041F27800C2F274
:1035900000000068804780BD83B0029001910092D6
:1035A0004EF20461C4F20F01086840F02000086088
:1035B000029841F27801C2F20001086045F20C0164
:1035C000C4F203010020086045F20002C4F20302C5
:1035D000106045F20403C4F2030302221A60019A48
:1035E000013A45F22803C4F203031A6045F2380297
:1035F000C4F20302106045F22402C4F20302012067
:10360000106045F21802C4F2030210604EF25C43EF
:10361000CEF200031A6822F0FF02DDF800C042EA91
:103620004C121A604EF20813CEF200034FF0805293
:103630001A60086003B070474EF21861C4F20F01BF
:10364000086840F020000860FFE74EF61820C4F23A
:103650000F0000688006002801D4FFE7F5E74EF26E
:103660000861C4F20F01086840F010000860FFE72D
:103670004EF60820C4F20F00006800F01000102879
:1036800001D0FFE7F4E744F22851C4F202010868D0
:1036900020F03F00086044F22041C4F202010868B3
:1036A00040F03000086044F22C51C4F20201086876
:1036B0004FF4881262F31700086044F20041C4F22C
:1036C0000201086840F00E00086044F21C51C4F288
:1036D0000201086840F03F00086041F23001C4F286
:1036E0000101086820F00100086041F22402C4F2E0
:1036F00001024FF40270106041F22802C4F201028C
:103700003520106041F22C02C4F2010270201060DA
:1037100041F23402C4F20102106820F03F00106050
:10372000086840F0010008607047000081B08DF823
:103730000300FFE741F21800C4F2010000688006B0
:10374000002801D5FFE7F5E79DF8030041F20001ED
:10375000C4F20101086001B07047000080B582B07A
:103760000190FFE70198007840B1FFE701980078E9
:10377000FFF7DCFF019801300190F3E702B080BD54
:103780004EF21861C4F20F01086840F001000860B1
:103790004EF20861C4F20F01086840F001000860B1
:1037A0004CF23001C4F20001086820F0010008600A
:1037B0004CF22402C4F200022B2010604CF22802CA
:1037C000C4F200021A2010604CF22C02C4F2000273
:1037D00070201060086840F00100086044F2204149
:1037E000C4F20001086840F00300086044F21C5174
:1037F000C4F20001086840F00300086044F22C5154
:10380000C4F200010868112262F30700086044F264
:103810002851C4F20001086820F0030008607047D6
:1038200081B08DF80300FFE74CF21800C4F20000ED
:1038300000688006002801D5FFE7F5E79DF8030042
:103840004CF20001C4F20001086001B070470000B2
:1038500080B582B00190FFE70198007840B1FFE7A2
:1038600001980078FFF7DCFF019801300190F3E741
:1038700002B080BD40F20401C2F200010878B0FA43
:1038800080F040090870704780B582B08DF807005D
:103890009DF8070028B1FFE79DF80700012839D1FE
:1038A000FFE79DF8070070BBFFE741F2DA00C2F2C4
:1038B0000000007801280ED1FFE740F2AC00C2F210
:1038C0000000006800F0E8F841F2DA01C2F20001FD
:1038D0000020087016E041F2D900C2F20000007822
:1038E00001280ED1FFE740F2AC00C2F200000068F0
:1038F000FDF75EFB41F2D901C2F200010020087021
:10390000FFE7FFE7FFE741F2A401C2F20001002058
:10391000087023E09DF80700022805D0FFE79DF816
:103920000700032807D1FFE741F2A401C2F200011A
:103930000120087011E09DF80700042805D0FFE77A
:103940009DF80700052807D1FFE741F2A401C2F264
:10395000000102200870FFE7FFE7FFE741F2A40043
:10396000C2F20000007841F2DC01C2F200010978E5
:10397000884243D0FFE740F23901C2F200010C2037
:10398000087040F21201C2F20001087040F2A80172
:10399000C2F20001087040F2A901C2F200010D203C
:1039A000087041F2A400C2F20000007818B9FFE7E5
:1039B000FDF7C0FD17E041F2A400C2F2000000785C
:1039C000012803D1FFE7FDF793FC0BE041F2A400CF
:1039D000C2F200000078022803D1FFE7FDF7F8FDEE
:1039E000FFE7FFE7FFE741F2A400C2F20000007822
:1039F00041F2DC01C2F2000108704BE041F2C0006C
:103A0000C2F2000000680A2821D3FFE740F2390122
:103A1000C2F200010C20087040F21201C2F2000153
:103A2000087040F2A801C2F20001087040F2A9013A
:103A3000C2F200010D20087041F2C700C2F200007E
:103A4000007818B1FFE7FDF775FDFFE722E041F2CE
:103A5000A400C2F20000007818B9FFE7FDF7CAFF22
:103A600017E041F2A400C2F200000078012803D15F
:103A7000FFE7FCF7E1FF0BE041F2A400C2F2000017
:103A80000078022803D1FFE7FFF790FAFFE7FFE78E
:103A9000FFE7FFE702B080BD81B000900098017899
:103AA000407801EB810100EB4100A0F5047041F288
:103AB0008D01C2F2000108700098C178007901EB15
:103AC000810100EB4100A0F5047041F28E01C2F2C9
:103AD0000001087041F28F01C2F20001002008705D
:103AE00001B0704780B582B001900198411C0191EE
:103AF00000788DF80300FFE79DF80300411E8DF864
:103B00000310002841D0FFE70198411C0191007883
:103B100000F0B8FD0198411C019100788DF8020079
:103B20009DF8020000F08000ADF800009DF8020052
:103B300000F07F008DF80200FFE79DF80200411EB3
:103B40008DF8021038B1FFE70198411C019100780F
:103B500000F0C6FDF1E7BDF80000A8B1FFE701984D
:103B6000411C01910078ADF80000BDF80000FF286D
:103B700005D1FFE74FF4FA70ADF80000FFE7BDF89C
:103B80000000FDF785FBFFE7B6E702B080BD00004F
:103B900080B58AB0099041F27D01C2F20001002097
:103BA000087040F2B401C2F2000108704EF21C61CC
:103BB000C4F20F01086840F0010008604EF208618D
:103BC000C4F20F01086840F001000860FFE74EF6FC
:103BD0000820C4F20F000068C00708B9FFE7F6E745
:103BE00044F20041C4F20001086840F0C8000860D7
:103BF00044F22041C4F200010491086820F0C8009A
:103C0000086044F21C51C4F200010591086840F0BC
:103C1000C800086044F22C51C4F200010691086803
:103C200040F6FF72C0F2FF021040086044F22851D3
:103C3000C4F200010791086820F0C800086044F24F
:103C40002001C4F2000100200090086044F200212D
:103C5000C4F2000101918020029008604FF4FA70D4
:103C60000390FDF715FB0099019A03981160FDF789
:103C70000FFB019A029903981160FDF709FBDDF82B
:103C800010C0059B069A0799DCF8000040F02C0054
:103C9000CCF80000186840F02C0018601068FF2372
:103CA000CFF60F73184042F20023C0F220031843EE
:103CB0001060086820F02C00086048F20401C4F28B
:103CC0000001086820F002000860086820F0040085
:103CD000086048F6C872C4F20002106820F00F00B5
:103CE000106048F21002C4F2000210680A2363F365
:103CF0000700106048F20002C4F2000210684FF69C
:103D0000C07398431060106820F030001060106895
:103D1000072363F303001060086840F002000860A6
:103D2000099820B1FFE70998FFF7DCFEFFE70AB02A
:103D300080BD0000FFE748F20C00C4F200000068FC
:103D4000C006002801D5FFE7F5E744F22001C4F2E0
:103D5000000108200860704780B588B08DF81F000A
:103D60008DF81E10ADF81C204020069033200590E1
:103D70009DF81F002D3044F24541C0F24441A0FBA4
:103D80000121C1EB0111A0EB81000490049948F2DC
:103D9000FE70C0F2000030F81100ADF80E0004997A
:103DA00043F27670C0F2010030F81100ADF80C005B
:103DB00006989DF81E10BDF90E204FF4007311FBFC
:103DC0000231CA1701EB925100EBA1200290059835
:103DD0009DF81E10BDF90C2011FB0231CA1701EB32
:103DE000925100EBA120019006980599029A019B3F
:103DF000BDF81CC0EE46CEF800C0FEF76FFA08B062
:103E000080BD000080B582B041F2C500C2F2000062
:103E10000078E8B1FFE740F2B000C2F2000090F98C
:103E2000002040F2B100C2F2000090F9003043F6E9
:103E3000FA00C0F201006946086041F2A600C2F231
:103E4000000043F60311C0F2010100F081FC2AE0FA
:103E500040F2B000C2F2000090F9002040F2B10040
:103E6000C2F2000090F9003040F2B300C2F200004C
:103E700090F800C043F6FD01C0F2010143F60010C6
:103E8000C0F20100BCF1000F08BF08466946086097
:103E900041F2A600C2F2000043F60311C0F2010194
:103EA00000F056FCFFE741F2A600C2F2000002B0AB
:103EB00080BD000041F2C800C2F2000000787047E7
:103EC00080B582B041F2C500C2F200000078D8B1DE
:103ED000FFE741F28D00C2F20000027841F28E004D
:103EE000C2F20000037843F6FA00C0F2010069460E
:103EF000086041F2AF00C2F2000043F60311C0F2C5
:103F0000010100F025FC28E041F28D00C2F2000022
:103F1000027841F28E00C2F20000037840F2040001
:103F2000C2F2000090F800C043F6FD01C0F20101AA
:103F300043F60010C0F20100BCF1000F08BF0846B4
:103F40006946086041F2AF00C2F2000043F6031177
:103F5000C0F2010100F0FCFBFFE741F2AF00C2F24A
:103F6000000002B080BD000080B586B00020039044
:103F70000590FCF799F90420FDF7E4FDFDF7ECFE50
:103F8000FFF7FEFBFFF758FBFEF742FEFEF7E2FDF0
:103F90000398FEF7ADFB0220FEF72CFC0520012262
:103FA00003231146FDF77CFDFCF708FEFCF7C0FC7F
:103FB000FDF760FFFEF7B2FC41F61510C0F20000FD
:103FC00041F68021C0F2060107220292FFF7CAF9EA
:103FD000029A42F6C160C0F200004BF20041C0F20A
:103FE000C441FFF7D9FAFCF761F9039841F2A50142
:103FF000C2F200010870FDF79DFAFFE700208DF87E
:10400000130041F26300C2F20000007890B1FFE7B4
:104010000A20FDF7EFF8FDF77DFD20B1FFE7012055
:104020008DF81300FFE741F26301C2F200010020A6
:10403000087067E041F26400C2F20000007890B1BD
:10404000FFE70A20FDF7D6F8FDF76CFD20B1FFE78A
:1040500002208DF81300FFE741F26401C2F2000173
:10406000002008704DE041F26500C2F200000078C7
:1040700090B1FFE70A20FDF7BDF8FDF75BFD20B129
:10408000FFE704208DF81300FFE741F26501C2F25B
:1040900000010020087033E041F26200C2F200002B
:1040A000007890B1FFE70A20FDF7A4F8FDF72AFD9C
:1040B00020B1FFE708208DF81300FFE741F262010D
:1040C000C2F200010020087019E041F26100C2F262
:1040D0000000007890B1FFE70A20FDF78BF8FDF7AC
:1040E00009FD20B1FFE710208DF81300FFE741F232
:1040F0006101C2F2000100200870FFE7FFE7FFE75F
:10410000FFE7FFE741F2C000C2F2000000680A28A2
:104110001BD3FFE741F2A500C2F20000002101918C
:1041200001700078FFF7B0FB019841F2C701C2F2BD
:104130000001087041F2C001C2F20001086041F2C2
:10414000DB01C2F200010870FFE79DF813000028B0
:1041500000F0F480FFE741F2C001C2F2000100204C
:10416000086040F2B200C2F20000007818B1FFE728
:10417000FDF700F842E79DF81300042803D1FFE79C
:1041800000F06EFA3AE79DF81300082809D1FFE71E
:1041900041F2C701C2F2000101200870FDF792F957
:1041A0002CE79DF81300102803D1FFE700F060F919
:1041B00024E741F2A500C2F20000007801280DD1E9
:1041C000FFE79DF81300022807D1FFE741F2DA016B
:1041D000C2F2000101200870FFE79CE041F2A50057
:1041E000C2F200000078022809D1FFE79DF8130011
:1041F000022803D1FFE7FCF7C3FEFFE78AE041F2A4
:10420000A500C2F20000007803280DD1FFE79DF859
:104210001300022807D1FFE741F2D901C2F20001E1
:1042200001200870FFE774E041F2A500C2F200002F
:104230000078042835D1FFE79DF8130002282FD11C
:10424000FFE741F2DB00C2F200000078012818D03D
:10425000FFE741F2DB00C2F200000078022810D034
:10426000FFE741F2DB00C2F200000078032808D02B
:10427000FFE741F2DB00C2F200000078042803D11E
:10428000FFE7FCF7A1FC0AE041F2DB00C2F200000C
:10429000007818B9FFE7FEF7B9FEFFE7FFE7ADE6E4
:1042A00036E041F2A500C2F20000007805282ED1C8
:1042B000FFE79DF81300022828D1FFE7FEF73AFE3A
:1042C00041F2DB00C2F20000017801310170007898
:1042D00005280CDBFFE741F2DB01C2F20001002000
:1042E000087041F2A501C2F20001087006E041F237
:1042F000A501C2F2000104200870FFE741F2A50009
:10430000C2F200000078FFF7BFFA77E6FFE7FFE7A9
:10431000FFE7FFE7FFE741F2A500C2F200000278E5
:1043200045F26A01C0F2000101EB82019DF8132001
:10433000895C01700078FFF7A7FAFFE741F25C00A3
:10434000C2F200000068B0F57A7F17D3FFE7FCF7F0
:1043500021FF014641F28000C2F2000001600068C6
:10436000FDF784FA40F20801C2F20001086041F250
:104370005C01C2F2000100200860FFE740F2080083
:10438000C2F2000000684CF6CD41CCF6CC41A0FB57
:104390000110C008182812D8FFE740F2B200C2F29C
:1043A0000000007818B1FFE7FCF7E4FEFFE7FFF735
:1043B00081FD18B1FFE7FEF7F3FBFFE7FFE71DE61E
:1043C00080B582B0ADF806009DF8070000F088F9CE
:1043D0009DF8060000F084F902B080BD80B584B07D
:1043E0008DF80F008DF80E108DF80D208DF80C3023
:1043F0002A2000F047F90020019000F071F99DF8A3
:104400000F0040F2B401C2F20001009109780844A3
:10441000C0B200F065F9019800F062F900999DF8CA
:104420000D0009780844C0B200F05AF92B2000F0C2
:1044300029F9019800F054F99DF80E0041F27D0130
:10444000C2F20001029109780844C0B200F048F9B4
:10445000019800F045F902999DF80C00097808448C
:10446000C0B200F03DF92C2000F00CF904B080BD82
:1044700041F2C500C2F200000178B1FA81F14909A8
:1044800001700078002861D0FFE740F20400C2F21A
:104490000000007878B9FFE741F28D00C2F2000019
:1044A00000780C2807D1FFE741F28D01C2F200012C
:1044B0000020087018E040F20400C2F2000000780A
:1044C000012810D1FFE741F28D00C2F20000007810
:1044D0000B2808DCFFE741F28D01C2F200010878E9
:1044E0000C300870FFE7FFE740F2B300C2F20000B3
:1044F000007880B9FFE740F2B000C2F2000090F906
:1045000000000C2807D1FFE740F2B001C2F2000121
:104510000020087019E040F2B300C2F200000078F9
:10452000012811D1FFE740F2B000C2F2000090F97B
:1045300000000B2808DCFFE740F2B001C2F20001E6
:1045400008780C300870FFE7FFE787E041F28D0044
:10455000C2F20000007868B9FFE741F28D01C2F2B3
:1045600000010C20087040F20401C2F2000100209A
:1045700008702DE041F28D00C2F2000000780C2896
:1045800007D1FFE740F20401C2F2000101200870E8
:104590001DE041F28D00C2F2000000780D280EDB14
:1045A000FFE741F28D01C2F2000108780C38087073
:1045B00040F20401C2F200010120087006E040F25E
:1045C0000401C2F2000100200870FFE7FFE7FFE7E7
:1045D00040F2B000C2F2000090F9000068B9FFE7B5
:1045E00040F2B001C2F200010C20087040F2B301A9
:1045F000C2F20001002008702FE040F2B000C2F2C9
:10460000000090F900000C2807D1FFE740F2B30149
:10461000C2F20001012008701EE040F2B000C2F2B8
:10462000000090F900000D280EDBFFE740F2B0011A
:10463000C2F2000108780C38087040F2B301C2F2EF
:1046400000010120087006E040F2B301C2F200014F
:1046500000200870FFE7FFE7FFE7FFE77047000073
:1046600080B582B040F21800C2F2000001900078DC
:10467000FEF792F801990878B0FA80F040090870C6
:1046800002B080BD81B08DF80300FFE748F20C0056
:10469000C4F200000068C006002801D5FFE7F5E776
:1046A00044F22001C4F200010020086044F200112D
:1046B000C4F2000108609DF8030048F20801C4F24A
:1046C00000010860FFE748F20C00C4F20000006837
:1046D000C006002801D5FFE7F5E701B070470000EC
:1046E00081B08DF80300FFE748F20C00C4F200002F
:1046F00000688007002801D4FFE7F5E744F20011C5
:10470000C4F20001402008609DF8030048F208014F
:10471000C4F20001086001B0704700000FB47CB51E
:104720000C0009AD01D0611E00E00021CDE90001BF
:10473000064B6A462946089800F0F0F8002C02D093
:10474000009A002111707CBC5DF814FB4B500000F6
:104750000FB4084B10B504A902AA039800F0DEF8C4
:10476000044602A9002000F07BFC204610BC5DF846
:1047700014FB00006150000002E008C8121F08C1CD
:10478000002AFAD170477047002001E001C1121FD2
:10479000002AFBD1704700002DE9FF5F82B00021A5
:1047A000DDE90430020DDDF840B0034318D044F6D3
:1047B0001050A2F2FF3242431514119801281FD065
:1047C000A5EB0B00401C5FEA000A4FF000064E4FBD
:1047D000DFF83891B046504615D5CAF1000413E011
:1047E000119801244AA3012801D16FEA0B01029814
:1047F000119AC0E90031C0E9024206B0BDE8F09F5D
:10480000CBF10000DFE704460021404A491842EBA3
:104810000450CDE9001012E0E00707D032463B46D5
:1048200040464946FBF7A8FE8046894632463B464D
:1048300010461946FBF7A0FE06460F466410002CF2
:10484000EAD1DDE90401DDE90023BAF1000F06DA5F
:10485000FBF792FE42464B46FBF78EFE05E0FBF768
:10486000FDFE42464B46FBF7F9FE04460E4600228B
:10487000284BFBF77BFF03D84FF0FF30014607E0E2
:104880000022254B20463146FBF7CFFDFBF755FFB5
:10489000102409E0002C0ADB0A220023FBF794FD18
:1048A000039B30321A55641E50EA0102F2D1641C97
:1048B000039AC4F111031444119A012A03D001226E
:1048C00008430DD10AE0084304D000204FF0110B3B
:1048D000119072E7A3EB0B056D1E0DE05B4504DD47
:1048E0004FF0000205F1010504E003DA4FF0000289
:1048F000A5F10105002AECD002981199C0E9023116
:10490000C0E9004579E70000000014400000F03FD6
:10491000300000000000F0430000E03F2DE9FF4FB1
:1049200095B09B468946064600250FE2252877D19B
:1049300000242746F84A0121059400E0044316F8B4
:10494000013F203B01FA03F01042F7D130782A28CA
:1049500011D06FF02F033078A0F13002092A16D859
:10496000059A44F0020402EB820203EB4202104477
:10497000761C0590EFE759F8042B0592002A03DA1C
:10498000504244F40054059044F00204761C307800
:104990002E2816D116F8010F44F004042A280DD051
:1049A0006FF02F023078A0F13003092B09D807EB04
:1049B000870302EB4303C718761CF3E759F8047B1F
:1049C000761C30786C280FD006DC4C2817D068286D
:1049D0000DD06A2814D104E0742810D07A280FD1A1
:1049E0000DE044F400140AE044F4801401E044F4BF
:1049F00040147278824202D104F58014761C761C31
:104A0000307866280BD013DC582877D009DC0028D2
:104A100075D04528F6D04628F4D047281AD19DE114
:104A200018E0632835D0642879D0652812D195E143
:104A3000702873D008DC6728F1D069286FD06E2801
:104A40000DD06F2806D1B5E073282CD0752875D00D
:104A5000782874D05A46179990476D1C75E1C4F3B5
:104A60000250022809D003280DD0D9F800100428DC
:104A70000DD00D6009F1040967E1D9F80010EA17BB
:104A8000C1E90052F6E7D9F800100D80F2E70D7089
:104A9000F0E719F8041B8DF8001000208DF80100D4
:104AA000EA46012003E059F804AB4FF0FF306107FC
:104AB0004FF0000102D40DE008F101018846B9422F
:104AC0000FDA8045F8DB1AF808100029F4D108E065
:104AD00008F1010188468142FADB1AF80810002922
:104AE000F6D105985B46A0EB080721463846179A91
:104AF00000F094FA284400EB080507E04DE029E1B6
:104B00000DE01AF8010B5A4617999047B8F10108C1
:104B1000F7D25B4621463846179A13E142E00A2253
:104B20000092C4F302524FF0000A022A08D059F84A
:104B300004CB032A4FEAEC710AD00DE029E02AE009
:104B400009F1070121F00702F2E802C1914609E0EC
:104B50000FFA8CFC4FEAEC71042A03D14FFA8CFC5B
:104B60004FEAEC71002907DA0A460021DCF1000C5B
:104B700061EB02012D2202E0220504D52B228DF8E3
:104B80000420012203E0E20701D02022F7E790464B
:104B900059E00A2102E010220DE010214FF0000A36
:104BA00000910BE010224FF0000A44F004040827A3
:104BB000009203E008224FF0000A0092C4F3025270
:104BC000022A05D059F804CB0021032A08D009E0B5
:104BD00009F1070121F00702F2E802C1914605E060
:104BE0001FFA8CFC042A01D10CF0FF0C4FF00008D6
:104BF000220728D5702806D0009B83F0100353EAC3
:104C00000A0305D00EE040228DF80420012208E0BE
:104C10005CEA010206D030228DF804208DF80500F0
:104C200002229046009B83F0080353EA0A030AD14C
:104C30005CEA010201D1620705D530228DF804201B
:104C40004FF001087F1E582804D034A003900EA80E
:104C500002900DE036A0F9E753466046009AFBF754
:104C6000B3FB84460398825C0298401E0290027057
:104C70005CEA0100F0D1029806A9081A00F1200AA6
:104C8000600702D524F4803400E00127574502DD97
:104C9000A7EB0A0000E0002000EB0A010090059855
:104CA0004144401A0590E00306D45B462146179A1A
:104CB000059800F0B3F90544002706E001A85A461C
:104CC000C05D179990476D1C7F1C4745F6DBE003DC
:104CD0000CD55B462146179A059800F09FF90544CC
:104CE00004E030205A46179990476D1C0099481EE1
:104CF00000900029F5DC08E0029802995A460078F5
:104D0000491C0291179990476D1CBAF10001AAF154
:104D1000010AF1DC65E1000009280100303132337D
:104D200034353637383961626364656600000000E7
:104D300030313233343536373839414243444546D1
:104D40000000000000F058F90544761C3078002877
:104D50007FF4ECAD19B02846BDE8F08F620700D4AF
:104D6000062709F1070222F0070CFCE80223E146BE
:104D700003F000485FEA080C02D00FF2702C0DE03F
:104D80005FEA045C02D50FF2682C07E05FEAC47C9E
:104D900002D00FF2602C01E0AFF2700C4FF0FF3840
:104DA00023F00043CDF850C065280CD006DC452820
:104DB00009D046281DD047283DD13DE0662818D0AF
:104DC00067287ED138E00021112F01DB112000E09F
:104DD000781CCDE9000106A90EA8FFF7DDFCDDE98E
:104DE0000F010E9A03910021009207F1010A04912C
:104DF0004DE04FF000400097CDE9011006A90EA844
:104E0000FFF7CAFCDDE90F0203920E9B1199002205
:104E1000DDF80CA00093049211B9791C00EB010A93
:104E2000B7EB0A0004D4C0F1FF3007F1010A049087
:104E3000AAEB0700019044E0012F00DA01270021CE
:104E4000112F01DD112000E03846CDE9000106A94F
:104E50000EA8FFF7A1FCDDE90F010E9A03910021D6
:104E600004910092BA4621070CD40399514500DA07
:104E70008A46BAF1010F05DD009AAAF10101515CE1
:104E8000302908D0B84202DA10F1040F06DA012105
:104E9000CDE9011015E0AAF10101E9E7002805DCE0
:104EA000049901440491AAEB000102E0411C514520
:104EB00000DD8A460499401A401C01904FF00040E2
:104EC0000290200704D40198504501DBCDF80480FE
:104ED00000208DF84F0002980DF14F07B0F1004F00
:104EE00025D02B200E9002984FF0020800280CDAF3
:104EF000404202902D200E9007E00A210298FBF715
:104F00004DFA3031029007F8011DB8F10001A8F107
:104F10000108F2DC02980028EFD1791E0E98087083
:104F2000307800F0200040F0450007F8020D12A88C
:104F3000C01B00F107081498007800B1012000EBB5
:104F40000A01019801EBE07105984144401A401EA6
:104F50000590E00306D45B462146179A059800F0B9
:104F60005DF805441498007818B15A46179990478F
:104F70006D1CE00324D55B462146179A059800F086
:104F80004DF805441CE00498002807DBDDE9030127
:104F9000884203DD0098405C179901E017993020A2
:104FA0005A469047049805F10105401C0490019869
:104FB000401E019004D12E205A46179990476D1C2F
:104FC000BAF10001AAF1010ADDDC05E017F8010BD6
:104FD0005A46179990476D1CB8F10001A8F10108D5
:104FE000F4DC5B462146179A0598ABE62D000000DD
:104FF0002B000000200000002DE9F04104460025B0
:105000001E461746880404D405E039462020B047E0
:105010006D1C641EF9D52846BDE8F0812DE9F041EC
:10502000044600251E469046C80301D5302700E0FF
:105030002027880404D505E041463846B0476D1C5A
:10504000641EF9D52846BDE8F0814A68002A06D0DA
:105050000A68531C0B6010704868401E4860704717
:105060000A68531C0B6010707047000102000100B9
:1050700004010203000203020403040504040504FE
:10508000050500000000003E5B4F5B3E3E6B4F6B32
:105090003E1C3E7C3E1C183C7E3C181C577D571C19
:1050A0001C5E7F5E1C00183C1800FFE7C3E7FF0092
:1050B00018241800FFE7DBE7FF30483A060E2629E0
:1050C000792926407F050507407F05253F5A3CE7A3
:1050D0003C5A7F3E1C1C08081C1C3E7F14227F2269
:1050E000145F5F005F5F06097F017F006689956A34
:1050F000606060606094A2FFA29408047E040810BF
:10510000207E201008082A1C08081C2A08081E10E7
:105110001010100C1E0C1E0C30383E3830060E3E9F
:105120000E06000000000000005F000000070007FE
:1051300000147F147F14242A7F2A12231308646228
:1051400036495620500008070300001C2241000089
:1051500041221C002A1C7F1C2A08083E08080080E7
:10516000703000080808080800006060002010087F
:1051700004023E5149453E00427F40007249494980
:10518000462141494D331814127F102745454539B2
:105190003C4A4949314121110907364949493646B6
:1051A0004949291E00001400000040340000000896
:1051B0001422411414141414004122140802015939
:1051C00009063E415D594E7C1211127C7F494949C6
:1051D000363E414141227F4141413E7F494949415B
:1051E0007F090909013E414151737F0808087F008A
:1051F000417F41002040413F017F081422417F4010
:105200004040407F021C027F7F0408107F3E4141E6
:10521000413E7F090909063E4151215E7F09192956
:1052200046264949493203017F01033F4040403F40
:105230001F2040201F3F4038403F63140814630381
:10524000047804036159494D43007F414141020400
:10525000081020004141417F040201020440404007
:105260004040000307080020545478407F284444FD
:10527000383844444428384444287F385454541817
:1052800000087E090218A4A49C787F080404780012
:10529000447D40002040403D007F102844000041F4
:1052A0007F40007C047804787C0804047838444407
:1052B0004438FC1824241818242418FC7C080404FE
:1052C00008485454542404043F44243C4040207C67
:1052D0001C2040201C3C4030403C44281028444CBA
:1052E0009090907C4464544C440008364100000087
:1052F000770000004136080002010204023C262328
:10530000263C1EA1A161123A4040207A38545455DF
:1053100059215555794121545478412155547840AB
:1053200020545579400C1E52721239555555593931
:105330005454545939555454580000457C41000286
:10534000457D420001457C40F0292429F0F02825C4
:1053500028F07C545545002054547C547C0A097F25
:105360004932494949323248484832324A4848303D
:105370003A4141217A3A42402078009DA0A07D39EF
:10538000444444393D4040403D3C24FF2424487E71
:105390004943662B2FFC2F2BFF0929F620C0887E5E
:1053A000090320545479410000447D413048484A63
:1053B00032384040227A007A0A0A727D0D19317D16
:1053C0002629292F28262929292630484D402038EA
:1053D0000808080808080808382F10C8ACBA2F10A9
:1053E0002834FA00007B000008142A142222142A10
:1053F0001408AA005500AAAA55AA55AA000000FF41
:1054000000101010FF00141414FF001010FF00FF14
:105410001010F010F0141414FC001414F700FF0026
:1054200000FF00FF1414F404FC141417101F1010D4
:105430001F101F1414141F00101010F000000000A3
:105440001F101010101F10101010F010000000FF9F
:10545000101010101010101010FF10000000FF149A
:105460000000FF00FF00001F10170000FC04F414F0
:10547000141710171414F404F40000FF00F71414A8
:105480001414141414F700F7141414171410101F24
:10549000101F141414F4141010F010F000001F105A
:1054A0001F0000001F14000000FC140000F010F0AA
:1054B0001010FF10FF141414FF141010101F000020
:1054C0000000F010FFFFFFFFFFF0F0F0F0F0FFFF33
:1054D000FF0000000000FFFF0F0F0F0F0F384444C4
:1054E00038447C2A2A3E147E02020606027E027E90
:1054F0000263554941633844443C04407E201E20E9
:1055000006027E020299A5E7A5991C2A492A1C4C8D
:105510007201724C304A4D4D303048784830BC6290
:105520005A463D3E494949007E0101017E2A2A2A08
:105530002A2A44445F444440514A444040444A512A
:10554000400000FF0103E080FF000008086B6B08CB
:105550003612362436060F090F0600001818000010
:10556000001010003040FF0101001F01011E001952
:105570001D1712003C3C3C3C00000000000F018065
:10558000961180FFB103012C2DB203012C2DB3061F
:10559000012C2D012C2DB40107C003A20284C101EE
:1055A000C5C2020A00C3028A2AC4028AEEC5010EDD
:1055B00020003601C83A0105022A04000200812BAE
:1055C00004000100A0022A040000007F2B04000058
:1055D000009F04E010021C07123732292D29252BC9
:1055E0003900010310E110031D07062E2C292D2E72
:1055F0002E373F0000021013800A2980640000004B
:10560000000000000000000000000000000000009A
:10561000000000000000000000000000000000008A
:10562000000000000000000000000000000000007A
:10563000000000000000000000000000000000006A
:10564000000000000000000000000000000000005A
:10565000000000000000000000000000000000004A
:10566000000000000000000000000000000000003A
:10567000000000000000000000000000000000002A
:10568000000000000000000000000000000000001A
:10569000000000000000000000000000000000000A
:1056A00000000000000000000000000000000000FA
:1056B00000000000000000000000000000000000EA
:1056C00000000000000000000000000000000000DA
:1056D00000000000000000000000000000000000CA
:1056E0000000000000000000FFFFFFFFFFFFFFFFC2
:1056F00000000000000000000000000000000000AA
:105700000000000000000000000000000000000099
:105710000000000000000000000000000000000089
:105720000000000000000000000000000000000079
:105730000000000000000000000000000000000069
:105740000000000000000000000000000000000059
:105750000000000000000000000000000000000049
:105760000000000000000000000000000000000039
:105770000000000000000000000000000000000029
:10578000000000000000FFFF000000000000FFFF1D
:10579000FFFF00000000000000000000000000000B
:1057A000000000000000000000000000FFFFFFFFFD
:1057B000FFFFFFFF000000000000000000000000ED
:1057C00000000000000000000000000000000000D9
:1057D00000000000000000000000000000000000C9
:1057E00000000000000000000000000000000000B9
:1057F00000000000000000000000000000000000A9
:10580000FFFFFFFF0000000000000000000000009C
:105810000000000000000000000000000000000088
:1058200000000000FFFFFFFF000000000000FFFF7E
:10583000FFFF00000000000000000000000000006A
:10584000000000000000000000000000FFFFFFFF5C
:1058500000000000FFFF000000000000000000004A
:105860000000000000000000000000000000000038
:105870000000000000000000000000000000000028
:105880000000000000000000000000000000000018
:105890000000000000000000000000000000000008
:1058A0000000FFFF000000000000000000000000FA
:1058B00000000000000000000000000000000000E8
:1058C00000000000FFFFFFFF000000000000FFFFDE
:1058D000FFFF0000000000000000000000000000CA
:1058E00000000000000000000000000000000000B8
:1058F00000000000FFFFFFFF0000000000000000AC
:105900000000000000000000000000000000000097
:105910000000000000000000000000000000000087
:105920000000000000000000000000000000000077
:105930000000000000000000000000000000000067
:105940000000FFFF00000000000000000000000059
:105950000000000000000000000000000000000047
:1059600000000000FFFFFFFF000000000000FFFF3D
:10597000FFFF000000000000000000000000000029
:105980000000000000000000000000000000000017
:1059900000000000FFFFFFFF00000000000000000B
:1059A00000000000000000000000000000000000F7
:1059B00000000000000000000000000000000000E7
:1059C00000000000000000000000000000000000D7
:1059D00000000000000000000000000000000000C7
:1059E0000000FFFF000000000000000000000000B9
:1059F00000000000000000000000000000000000A7
:105A000000000000FFFFFFFF0000FFFFFFFFFFFFA0
:105A10000000000000000000000000000000000086
:105A20000000000000000000000000000000FFFF78
:105A3000FFFFFFFFFFFFFFFF00000000000000006E
:105A40000000000000000000000000000000000056
:105A50000000000000000000000000000000000046
:105A60000000000000000000000000000000000036
:105A70000000000000000000000000000000000026
:105A800000000000FFFF0000000000000000000018
:105A90000000000000000000000000000000000006
:105AA000000000000000FFFF0000000000000000F8
:105AB00000000000000000000000000000000000E6
:105AC0000000000000000000000000000000FFFFD8
:105AD000FFFFFFFFFFFF00000000000000000000CC
